:020000044000BA
:100000006F90987A130000001300000013000000A6
:100010001300000013000000130000001300000094
:10002000732700FCF32700BCB3F7E70093F7170032
:1000300063940700678000006F90D87E93070000EC
:10004000739007BC736004306FA0C81837E3FFFFDC
:10005000130101FE37550940232E11001305053108
:1000600033016100EFC09812F32800B03727000079
:10007000930601013307D700B7E7FFFFB307F70087
:100080002326F10013850700930600009305000066
:1000900013060700130880008327C10003A7070089
:1000A000938747003307D70023AEE7FEE398C7FEE8
:1000B000832705009386160013054500B385F500D8
:1000C000E39C06FD732600B0330616419356F641B5
:1000D0003723000093962601330161008320C1017C
:1000E00093D62601B386C6003755094093D6E6401D
:1000F00013054532130101026FC0180437E3FFFFF7
:10010000130101FE37550940232E110013058535D3
:1001100033016100EFC09807732800B03727000053
:10012000930601013307D700B7E7FFFFB307F700D6
:100130002326F10013860700B7260000930701016C
:100140001307000093050000B386F6001305800036
:100150008327C10023A0E70093874700E39CD7FED5
:10016000832706001307170013064600B385F50022
:10017000E310A7FE732600B0330606419356F641FE
:100180003723000093962601330161008320C101CB
:1001900093D62601B386C6003755094093D6E6406C
:1001A00013058536130101026FC0087937E3FFFF9D
:1001B000130101FE37550940232E1100130545395F
:1001C00033016100EFC0887C732800B0372700003E
:1001D000930601013307D700B7E7FFFFB307F70026
:1001E0002326F100138507101386070093050000EE
:1001F000930607008327C10003A707009387070220
:10020000B385E500E39AD7FE2320B6001306460027
:10021000E312A6FE732600B0330606419356F6415C
:100220003723000093962601330161008320C1012A
:1002300093D62601B386C6003755094093D6E640CB
:100240001305C53A130101026FC0086F130101FEC7
:1002500037E3FFFF37550940232E11001305453DB5
:1002600033016100EFC08872930601013727000057
:100270003307D700B7E7FFFFB307F700B716000053
:100280002326F100B386D7009305000003A70700DB
:1002900093874700B385E500E39AD7FE732500B046
:1002A0000326C1008327C10003A7070093874700E7
:1002B000B385E500E39AD7FE2320B6001306460077
:1002C000E312F6FE732600B03306A6409356F641BD
:1002D000372300009396C600330161008320C101DB
:1002E00093D6C600B386C6003755094093D646411B
:1002F0001305C53A130101026FC0086437E3FFFF1D
:10030000130101FE37550940232E11001305C53E88
:1003100033016100EFC08867732800B03727000001
:10032000930601013307D700B7E7FFFFB307F700D4
:100330002326F100138507021386070093050000AA
:10034000930607008327C10003A707009387470090
:10035000B385E500E39AD7FE2320B60013064600D6
:10036000E312A6FE732600B0330606419356F6410B
:100370003723000093962601330161008320C101D9
:1003800093D62601B386C6003755094093D6E6407A
:100390001305C53A130101026FC0085A37351840DA
:1003A0001305C5BF6F50901237550940130101F96D
:1003B0001305C552232E31052326710523248105FB
:1003C000232291052320A10523261106232481063B
:1003D0002322910623202107232C4105232A51059E
:1003E00023286105232EB103EFC0485AB7371840C0
:1003F000138DC709B73718409387C7772320F102B9
:10040000B7170000938707802322F102B7570940EE
:100410009387C7552328F10093071000B387A7419E
:1004200093090000930C0040130C0000930B004054
:100430002326F102F32700B02324F102B737184036
:100440001385C7091306006E93050002EF20097F8C
:10045000373418401305C4771306006E9305F00770
:10046000EF20C97DB30770412326F1009307A00553
:10047000232EF10093070040330B8041232AF10023
:10048000232C0100930040011309E004B704B0FFDE
:100490001304C477B7033000032781010326410109
:1004A00083274102338AEB02930E4014330FF60088
:1004B0009306004093070000B30FEC0293720AC04A
:1004C00037075000135AAA40B382E200B38ACC0225
:1004D00093DFAF4093DAAA40338EE70313962700E9
:1004E0003306F600139726003307D70013568640CD
:1004F0003386C640135787403307F700938EFEFFBD
:100500001358AE4033850B033383E6031355A540E0
:100510003385AF401353A340B3886C02B385A9025F
:1005200033080C03B385150193984500B388B84090
:1005300033085800B3C80803938DB800B305C6024A
:1005400063EEB00B9388C800939D2800B3881D010B
:10055000B30D98009398480093DDFD40939D8D0165
:1005600093DD8D41338369023385AC023305A340AB
:10057000131345003303A34013131300334803033D
:1005800013058802B388A800130878023305140104
:10059000636609079397B700330EFE408307050093
:1005A000135EAE40B3081D0163DAFD048327C1006A
:1005B000B386DA022300B501B307FE0293D7A74042
:1005C000B387F701330E6E03B3873703B307FE40DB
:1005D000B387D74093D7A740B387474193D7774096
:1005E00093C6F7FF93D6F641B3F7D70083260101F0
:1005F000B387F60083C707002380F800B306E7023D
:10060000B387B340B387D74093D7B740B306F6025A
:10061000B307F70293D6A64093D7A740E39E0EEA0E
:100620008326810103264101139736003307D70043
:1006300093173600135777403307E640B387C70058
:100640000326C10193D77740B387D700B306E702EB
:100650009305F6FF232EB1003386F702B386D3400D
:10066000B386C64093D6B6403307D702B387D702C6
:100670001357A740232AE10093D7A740232CF1006A
:10068000E39C05E01305A0000329C102EFC0482F39
:100690000327010213040D0093040005B30789002A
:1006A00063048702B3E797021305A0006384070081
:1006B00003051400EFC0C82C032701021304140023
:1006C000B3078900E31087FE13962B0013972C00C5
:1006D000330676013307970193162C00B386860103
:1006E000939729001356764013578740330CCC401C
:1006F000B3873701B389E94013D77640B30B77014D
:10070000B386390393D78740B38C9701B70730007E
:1007100033078C0333867B033387E740B387D740A7
:10072000B3869C033307C7401357B740B387D740FE
:1007300093D7B740330CEC02B38BEB02135CAC40A5
:10074000B389F90293DBAB40B38CFC0293D9A94087
:1007500093DCAC40EF90D80C63160502F32500B093
:10076000832781023755094013058554B385F54029
:10077000EFC0881C3755094013054555EFC00821C7
:100780006FF05FCB032481068320C10683244106DA
:10079000032901068329C105032A8105832A41050E
:1007A000032B0105832BC104032C8104832C4104FA
:1007B000032D0104832DC103130101076FC0081726
:1007C000130101FF23261100EFF05F87B7550940A1
:1007D000375509409385C55613054557EFC0C815D1
:1007E00037351840130545C7EF50404E8320C100F0
:1007F0001305000013010101678000003735184020
:100800001305C5D16F50804C130101FF2326110041
:10081000EFC0C8118320C1001375F50F130101014A
:1008200067800000130101FF2324810023261100AB
:100830001304050003450500630A050013041400B2
:10084000EFC0081403450400E31A05FE8320C1002D
:10085000032481001301010167800000678000000C
:1008600037351840130545D56F504046130101FD3B
:10087000B727184023248102232291011304050085
:10088000938C050003A5074783A54747232611023C
:100890002322910223202103232E3101232C410105
:1008A000232861012326710123248101135B144055
:1008B000232A5101EFD04875130A050013050B00D8
:1008C00093890500EFB08860130905009384050043
:1008D000130609009386040013050A009385090096
:1008E000EFB08823930B0500138C050013860B00D3
:1008F00093060C001305090093850400EFA05861CE
:10090000EFD0D83537291840032689478326C947B1
:1009100023A0AC0023A2BC0093143B00EFA0585FBF
:10092000B3849C0023A0A40023A2B400930710006A
:100930006300FB088329C94703298947131434003E
:10094000938A8C00B38C8C001304100013050400F0
:10095000EFB0C85713860B0093060C00EFA0585B4E
:10096000130A050093840500EFD0582F13060900E1
:1009700093860900EFA0D85923A0AA0023A2BA00A9
:1009800013050A0093850400EFE09864130609003C
:1009900093860900EFA0D85723ACACFE23AEBCFE73
:1009A00013041400938A8A00938C8CFFE3108BFA53
:1009B0008320C1020324810283244102032901020E
:1009C0008329C101032A8101832A4101032B0101EB
:1009D000832BC100032C8100832C410013010103F0
:1009E00067800000130101FD232681022324910268
:1009F0002322210323203103232E4101232C5101E3
:100A0000232A6101232871012326810123249101D6
:100A10002322A10123A00500930780001384050071
:100A200063DAA71613081000131328001355154096
:100A3000B30564009307040003A70700B3866700AB
:100A4000938747003307A70023A0E600E396F5FE4F
:100A5000931748001319180063D6A700130809005C
:100A60006FF09FFC9308030013183800638CA712E3
:100A700093024400B30804019303200003A702007B
:100A800013080400B3066700939636001317370067
:100A90003307E600B306D60083270800032F0700BC
:100AA000832F4700B387F30093943700138A8400A1
:100AB000330A4601B304960003A5040083A544004D
:100AC00003290A0083294A00032E8700832EC700CA
:100AD000B307F3002320A7002322B7002324270114
:100AE000232637019397370023A0E40123A2F401C2
:100AF000938487002320CA012322DA01B307F6007A
:100B0000B304960003A9040003A5070083A54700CA
:100B100083A9440003AF060083AF460003AE8600FE
:100B200083AEC60023A0A60023A2B60023A42601FC
:100B300023A6360123A0E70123A2F70123A0C401C5
:100B40001308480023A2D401130707019386060166
:100B5000E39402F59382420093832300E39058F2DA
:100B60000324C10283248102032941028329010253
:100B7000032AC101832A8101032B4101832B010137
:100B8000032CC100832C8100032D410013010103BC
:100B900067800000E316F5FC1308400013091000FD
:100BA00093082000138A0800930244009309000070
:100BB00083A6C2FF93891900B306DA00338FD800E9
:100BC000131F3F00B30FE601130F8F0003A70F00A1
:100BD00083A74F00330FE60193963600032E0F00D4
:100BE000832E4F00B304D6009386860003A304002F
:100BF00083A34400B306D60003A5060083A54600E0
:100C000023A0E40023A2F40023A0C60123A2D6015E
:100C100023A06F0023A27F002320AF002322BF0068
:100C2000E38029F583A602009394190013050400BC
:100C30003387D800B387E800B385F8009396360071
:100C4000131737009397370093953500B306D600F6
:100C50003307E600B307F600B305B600832A0500A4
:100C600003AE060083AE4600B38A5401139B3A00DC
:100C7000930C8B00B30C9601330B660103AF0C0091
:100C800083AF4C00832B0B00032C4B0003A3860087
:100C900083A3C600B38A0A0123A0760123A286019A
:100CA00023A4E60123A6F601939B3A002320CB015F
:100CB0002322DB01138C8B0023A06C0023A27C0079
:100CC000B30B7601330C8601032F0C00832F4C00ED
:100CD00083AC0B0003AD4B00032E0700832E4700AF
:100CE00003238700B38A1A418323C7002320970177
:100CF0002324E7012326F7012322A701139B3A00AF
:100D000023A0CB0123A2DB01930B8B00B30B760155
:100D1000330B660123206C0023227C0003AF0B0001
:100D200083AF4B00032C0B00832C4B0003AE07005A
:100D300083AE470003A3870083A3C700B38A0A01D9
:100D400023A0870123A2970123A4E70123A6F7018B
:100D5000939A3A002320CB012322DB01138B8A00D4
:100D600023A06B0023A27B00B30A5601330B66015C
:100D7000032F0B00832F4B0083AB0A0003AC4A0008
:100D800003AE050083AE450003A3850083A3C50021
:100D900023A0750123A2850123A4E50123A6F50163
:100DA00023A0CA0123A2DA011305450023206B000A
:100DB00023227B009386060113070701938707010F
:100DC00093850501E39CA2E8130A2A00938242005E
:100DD0006FF01FDE130101FBB727184023248103A6
:100DE0002322910303AC074783AC4747232A5103CF
:100DF00023286103930A0500138B050013050C00DB
:100E000093850C00232611042324810423229104BA
:100E100023202105232E3103232C41032326710394
:100E2000130A060093D41A402320A103232EB101F4
:100E300023266101EFD0481D9309050013850400A6
:100E400013890500EFB0880813840500930B050093
:100E50009306040013860B0013850900930509000F
:100E6000EFA0984B130905009389050013060900AC
:100E7000938609009305040013850B0023208A0143
:100E800023229A0123240A0023260A00EFA05808EF
:100E900013943400EFD0885C33048A002320A4002C
:100EA0002322B4002324A4002326B40093072000A7
:100EB00063D2970C139C3A00130D0A01330C8A017C
:100EC000930C200013850C00EFB0480013060900B6
:100ED00093860900EFA0D803130B0500938D05003E
:100EE000EFD0C857930B05001384050013050B00C2
:100EF00093850D00EFE0D80D2324AD0023207D0164
:100F000023228D002326BD002328ACFE232ABCFE0D
:100F1000232C7CFF232E8CFE938C2C00130D0D01B3
:100F2000130C0CFFE3C09CFA8327C1000324810447
:100F30008320C10483244104032901048329C103BC
:100F4000032B0103832BC102032C8102832C41025A
:100F5000032D0102832DC10113060A0013850A0027
:100F6000032A8103832A4103938587001301010526
:100F70006FF05FA78320C10403248104832441040C
:100F8000032901048329C103032A8103832A41031E
:100F9000032B0103832BC102032C8102832C41020A
:100FA000032D0102832DC10113010105678000009B
:100FB000130101F42324410B2322510B03AA050042
:100FC00083AA45002320610B232E710903AB050181
:100FD00083AB4501130F0500232C810A93860B0078
:100FE00013840500232A910A13050A0093040600BE
:100FF00093850A0013060B00232E110A232AE1050C
:101000002328210B2326310B232C8109232A910924
:101010002328A1092326B109EFA048210327840131
:101020008327C401032984008329C400138C05008D
:10103000130D05001306070093860700130509002A
:10104000938509002320E1002322F100EFA0081E70
:10105000930805001388050013060B0093860B0008
:1010600013050A0093850A00138B0800130A080071
:10107000EFA0886003270100832741009308050043
:10108000138805001306070093860700130509005F
:10109000938509001389080023200101EFA0C85D92
:1010A0000323040283234402032E0403832E4403F8
:1010B0009387050013060E0093860E0093850300A8
:1010C0002324A1001305030023286102232A7102AF
:1010D0002324C1032326D1032328F100EFA0081500
:1010E00003278402032884038328C4038327C402BC
:1010F000938C0500930D05001306080093860800E5
:1011000013050700938507002320E1022322F10243
:10111000232C0101232E1101EFA04811832EC102BF
:1011200083234103032E81020323010393860E00D0
:10113000930B0500938A050013060E0093850300A8
:1011400013050300EFA04853032881018328C10140
:101150000327010283274102130E050013830500B4
:1011600013060800938608001305070093850700FF
:10117000232CC10123206102EFA0085093870500B2
:101180009309050013860D0093860C0013050D00CE
:1011900093050C002324F102EFA0480913860B00ED
:1011A00093860A002320A4002322B40013050B0019
:1011B00093050A00EFA0880713860D0093860C00A4
:1011C0002324A4002326B40013050D0093050C006E
:1011D000EFA0884A13860B0093860A002320A402FE
:1011E0002322B40213050B0093050A00EFA0C848A0
:1011F000032C0100832C8102138609002324A402FE
:1012000093860C002326B4021305090093050C00F5
:10121000EFA08846832B8101032B8100032A010163
:10122000832A010213860B002328A40093860A0058
:10123000232AB40013050B0093050A00EF90187FD2
:101240001386090093860C00232CA400232EB400DF
:101250001305090093050C00EF90587D13860B00D1
:1012600093860A002328A402232AB40213050B0044
:1012700093050A00EFA04840032A0404832A44048B
:10128000032B0405832B4405232CA40213060B0017
:1012900093860B00232EB40213050A0093850A00DF
:1012A000EF90D878032984048329C404032C84058F
:1012B000832CC4059387050013060C0093860C004D
:1012C0002320A10093850900130509002324F100C0
:1012D000EF90D875130705009387050013060B00E0
:1012E00093860B0013050A0093850A00930B0700F1
:1012F000938A0700EFA0483813070500938705007D
:1013000013060C0093860C00130509009385090051
:101310002328E100232CF100EFA008360327040660
:101320008327440603A9040183A944010328040771
:1013300083284407138305001306080093860800DA
:10134000938507002320A102130507002324E1044D
:101350002326F10423200105232211052324610201
:10136000EF90D86C032C8406832CC406032D8407CD
:10137000832DC4071383050013060D0093860D000B
:101380002328A10293850C0013050C00232C610275
:10139000EF90D869032801048328410403278104BE
:1013A0008327C1041306080093860800130B050069
:1013B000138A05001305070093850700EFA0C82BCB
:1013C000130705009387050013060D0093860D0093
:1013D00013050C0093850C00130D0700938D070077
:1013E000EFA088290326010383268103130C05003F
:1013F000938C05000325010083258100EF9018637D
:1014000013060B0093060A002320A4042322B4042D
:1014100013850B0093850A00EF90586113860B002B
:1014200093860A002324A4042326B40413050B0086
:1014300093050A00EFA048240327010083278100B9
:1014400003260103832681032320A4062322B40656
:101450001305070093850700EFA008220327010169
:101460008327810113060C0093860C002324A40615
:101470002326B4061305070093850700EFA0C81FB5
:10148000930A0500138A05000325010283258102C2
:1014900013060D0093860D00EF905859930B05002D
:1014A000138B050013860B0093060B0013850A00AF
:1014B00093050A00EFA0481C130609009386090053
:1014C000EFA0082513860B0093060B002328A40425
:1014D000232AB40413850A0093050A00EF901855D7
:1014E0001306090093860900EFA088228327810153
:1014F0000327010113060C0093860C00232CA4047F
:10150000232EB4041305070093850700EF901852AB
:101510000326010283268102930A0500138A05002F
:1015200013050D0093850D00EFA0081513860A0022
:1015300093060A00930B0500138B0500EFA0C81358
:101540001306090093860900EFA0881C13860B0080
:1015500093060B002328A406232AB40613850A0049
:1015600093050A00EF90984C130609009386090032
:10157000EFA0081A032F4105232CA406232EB4063E
:1015800093070001E3DAE72B130FFFFE93820402B7
:10159000137F0FFFB3075F00938F0401130C040840
:1015A000232EF10683AE8F0003AECF0003A482008A
:1015B00083A4C20013860E0093060E0013850E004E
:1015C00093050E0003AA020083AA420023205106BD
:1015D0002328D1072326C107232AF107EF901845B6
:1015E0001306040093860400130904009389040081
:1015F0001384050093040500EFA08811130605006D
:101600009386050013050A0093850A00EFA0C8061B
:10161000130705009387050013060A0093860A0046
:101620001385040093050400232CE1002324F10416
:101630002324410123265101EFA0880D1306090040
:101640009386090023282101232A3101EFA0C80233
:1016500003240C0083244C0003290C0183294C0132
:10166000938705001306090093860900232AA10425
:1016700093850400130504002324F106EF90183B22
:1016800003278C018327CC01032D8C00832DCC00F4
:10169000138A0500130B0500130607009386070045
:1016A00013050D0093850D002320E1002322F10096
:1016B000EF90D8379308050013880500130609003A
:1016C000938609001305040093850400138908001C
:1016D00013040800EF90587A032701008327410084
:1016E000930805001388050013060700938607007A
:1016F00013050D0093850D002320110323240103FE
:10170000EF90987703280C0283284C0283234C0324
:1017100003230C0393870500232C0105232E1105B9
:101720001306030093860300938508002328A10273
:10173000130508002320610423227104232CF102E5
:10174000EF90D82E03278C038327CC03032D8C0224
:10175000832DCC02938A0500930B05001306070026
:101760009386070013050D0093850D002320E100EB
:101770002322F100EF90982B0323010483234104DB
:10178000032881058328C1051306030093860300FF
:10179000930905009384050013050800938508004C
:1017A000EF90986D032701008327410093080500FF
:1017B00013880500130607009386070013050D0024
:1017C00093850D0023200105938D0800EF90D86AC2
:1017D000130D0500938C050013860B0093860A00F9
:1017E00013050B0093050A00EF905824832F41073F
:1017F000138609009386040003A30F0083A34F0000
:101800002320AC002322BC0013050900930504002B
:10181000232CF1072320610023227100EF9018216F
:1018200013860B0093860A002324AC002326BC00F9
:1018300013050B0093050A00EF90186413070500C9
:101840009387050013860900938604001305090099
:10185000930504009304070013840700EF90D861F8
:101860009309050013890500032501008325410024
:101870001386040093060400EF909869832E0107F5
:10188000032EC106930B0500138B050013850E0074
:1018900093050E001386090093060900938A0E0033
:1018A000130A0E00EF90D866130605009386050014
:1018B00013850B0093050B00EF90185C032B0100C0
:1018C000832B410013860900930609002320AC02F4
:1018D0002322BC0213050B0093850B00EF90586385
:1018E0001307050093870500138604009306040080
:1018F00013850A0093050A00930407001384070068
:10190000232A510723284107EF909860130605000A
:10191000938605001385040093050400EF901811C9
:10192000032701028327810213060D0093860C0012
:101930002324AC022326BC0213050700938507006D
:10194000EF90985393040500138405008326010447
:10195000032501038325810313860D00130C0C0856
:10196000EF90D80C93090500138905000325810029
:101970008325C1001386040093060400EF90585994
:10198000930A0500138A05000325010183254101FF
:101990001386090093060900EF9098571306050077
:1019A0009386050013850A0093050A00EF90D84C32
:1019B0002328ACF8232ABCF8032581008325C10025
:1019C0001386090093060900EF9098541307050049
:1019D0009387050003250101832541011386040037
:1019E000930604009304070013840700EF905852F5
:1019F0001306050093860500138504009305040073
:101A0000EF90D802832781020327010213060D00FD
:101A100093860C00232CACF8232EBCF8130507008A
:101A200093850700EF909800930405001384050048
:101A300083260104032501038325810313860D00FA
:101A4000EF9098439309050003258101832D8104BC
:101A500013890500138604009306040093850D0086
:101A6000EF90184B032D4105832C8106930A050046
:101A7000138A0500138609009306090013050D005B
:101A800093850C00EF90D848130605009386050057
:101A900013850A0093050A00EF90183E0327810181
:101AA00013860900930609002328ACFA232ABCFAFE
:101AB0001305070093850D00EF9098451307050067
:101AC00093870500138604009306040013050D0098
:101AD00093850C009304070013840700EF9058438C
:101AE0001306050093860500138504009305040082
:101AF000EF90C87383220106232CACFA232EBCFA84
:101B000003A9820183A9C20113060B0093860B006F
:101B100013050B0093850B0003AA020183AA42015F
:101B200023265106EF90887013060900938609005A
:101B30009304050013840500EF90983D13060500FB
:101B40009386050013050A0093850A00EF90D832AA
:101B5000130705009387050013060A0093860A0001
:101B600013850400930504002320E1042324F104D9
:101B70002324410123265101EF90983913060900CF
:101B800093860900232C2103232E3103EF90D82EB6
:101B900003290CFC83294CFC032A0CFD832A4CFDF1
:101BA0009387050013060A0093860A00232AA104DE
:101BB00093850900130509002324F106EF900867B7
:101BC00003278CFD8327CCFD03248CFC8324CCFCD1
:101BD000938B0500130D050013060700938607007D
:101BE00013050400938504002328E100232AF10053
:101BF000EF90C863930805001388050013060A00D8
:101C000093860A001305090093850900938A08004A
:101C100093090800EF90582603270101832741010B
:101C20009308050013880500130607009386070034
:101C3000130504009385040023281101232C0101BE
:101C4000EF90982303280CFE83284CFE03230CFFFF
:101C500083234CFF9387050013060300938603003C
:101C6000938508002320A102130508002320010703
:101C700023221107232C6104232E71042324F10253
:101C8000EF90C85A03278CFF8327CCFF03248CFED8
:101C90008324CCFE938C0500930D050013060700EA
:101CA0009386070013050400938504002328E102AE
:101CB000232AF102EF9088578323C105032381056E
:101CC00003280106832841069386030013060300B8
:101CD000130B0500138A05001305080093850800FF
:101CE000EF90981903270103832741039308050008
:101CF00013880500130607009386070013050400E8
:101D0000938504001304080023281103EF90D816CC
:101D1000130905009384050013860D0093860C00BB
:101D200013050D0093850B00EF90485013060B0030
:101D300093060A002320ACFC2322BCFC13850A0076
:101D400093850900EF90884E13860D0093860C0052
:101D50002324ACFC2326BCFC13050D0093850B004B
:101D6000EF909811032E0107370300801307050039
:101D70009387050013060B0093060A0013850A00DB
:101D800093850900B34BC301130A07009389070029
:101D9000EF90980E832E4107130B0500938A0500E0
:101DA00013850E0013060A009386090093850B0025
:101DB000938C0E00EF90D815930D0500138D050040
:101DC000032501008325410013060B0093860A00BA
:101DD000EF901814130605009386050013850D0077
:101DE00093050D00EF9058092320ACFE13060B005D
:101DF00093860A002322BCFE13850C0093850B00FA
:101E0000EF901811130705009387050003250100C3
:101E10008325410013060A0093860900130A070070
:101E200093890700EF90D80E1306050093860500EE
:101E300013050A0093850900EF90483F032701012D
:101E40008327810113060900938604002324ACFE36
:101E50002326BCFE1305070093850700EF90D801E9
:101E6000130A0500938905000326010303250102D7
:101E70008325810293060400EF90483B130B050075
:101E8000938A0500032581008325C10013060A00FB
:101E900093860900EF90D807032D8103832DC1039A
:101EA000930C0500938B050013060B0093860A0024
:101EB00013050D0093850D00EF909805130605009E
:101EC0009386050013850C0093850B00EF90C87A6C
:101ED0002328ACFC232ABCFC032581008325C100F8
:101EE00013060B0093860A00EF9098021307050073
:101EF0009387050013060A009386090013050D0059
:101F000093850D00130A070093890700EF9058008E
:101F1000130605009386050013050A009385090042
:101F2000EF90C830032701018327810113060900C0
:101F300093860400232CACFC232EBCFC1305070065
:101F400093850700EF90882E938705009304050082
:101F50000326010303250102832581029306040061
:101F600013840700EF904871032D0104832C810432
:101F700093090500138905001386040093060400E5
:101F800013050D0093850C00EF908878832B410595
:101F9000032B8106930A0500138A050013860900A6
:101FA0009306090013850B0093050B00EF9048760C
:101FB000130605009386050013850A0093050A00A1
:101FC000EF90886B2328ACFE232ABCFE1386090001
:101FD0009306090013050D0093850C00EF904873DC
:101FE0009387050013070500138604009306040079
:101FF00013850B0093050B0013840700930407005F
:10200000EF90087113060500938605001385040000
:1020100093050400EF908821832F81078322C10656
:102020008327C107232CACFE232EBCFE938F0F0108
:10203000938202026398F7D78320C10B0324810B9C
:102040008324410B0329010B8329C10A032A810A36
:10205000832A410A032B010A832BC109032C81091E
:10206000832C4109032D0109832DC1081301010CA3
:1020700067800000130101F1939725002326110EBC
:102080002324810E2322910E2320210F232E310D94
:10209000232C410D232A510D2328610D2326710D78
:1020A0002324810D2322910D2320A10D232EB10B7A
:1020B000232AB104232AA108232CC1042320D106FA
:1020C0002328F1046356B02A9387F5FF93F7E7FFBF
:1020D00013973500B387B700330DE60093973700A9
:1020E00093060601B30DED00B387D70093040600F5
:1020F0003384ED00232CF102032C0D00832C4D00C2
:1021000003AB040083AB4400130D0D0113060C0058
:1021100093860C0013050B0093850B00EF900811BC
:1021200003A9840083A9C400032A8DFF832ACDFF5D
:102130009387050013060A0093860A002320A10056
:1021400093850900130509002324F100EF90080E80
:10215000130705009387050013060C0093860C00F7
:1021600013050B0093850B002326E1002328F100C3
:10217000EF908850130705009387050013060A00A7
:1021800093860A001305090093850900232CE100BA
:102190002324F104EF90484E0327040083274400D2
:1021A00003AB0D0083AB4D00138805001306070039
:1021B000938607002320A10293850B0013050B00D3
:1021C0002328E102232AF10223240103EF900806C9
:1021D00003AA8D0083AACD00032984008329C400AB
:1021E000138C0500930C0500130609009386090063
:1021F00013050A0093850A00EF90480303270103A3
:102200008327410393080500138805001306070080
:102210009386070013050B0093850B00130B080032
:10222000938B0800EF90484513070500938705003E
:10223000130609009386090013050A0093850A0016
:102240009309070013890700EF900843930A0500DC
:10225000138A0500032501008325810013860C00E5
:1022600093060C00EF80987C0327C10083270101AF
:1022700023A0A40013860B0093060B0023A2B40036
:102280001305070093850700EF80587A03270100A4
:102290008327810013860C0093060C0023A4A4005E
:1022A00023A6B4001305070093850700EF90C83CF0
:1022B000832701010327C10013860B0093060B003F
:1022C00023A0AD0023A2BD001305070093850700DE
:1022D000EF90883A832C8101032C810423A4AD0064
:1022E00023A6BD0013860A0093060A0013850C007E
:1022F00093050C00EF904838832B0102032B8102D9
:1023000013860900930609002328ADFE232ABDFE8B
:1023100013850B0093050B00EF80587113860A009C
:1023200093060A00232CADFE232EBDFE13850C0060
:1023300093050C00EF80986F2320A4002322B400A3
:10234000138609009306090013850B0093050B0003
:10235000EF908832832781032324A4002326B4002E
:1023600093840401938D0D0113040401E396A7D90E
:1023700083274105832601053387D700832701067C
:102380002322E10603A8470183A7070123260103AF
:102390002324F10263D0E638832641059305070024
:1023A000032881053387E6003386E6009387F6FF2E
:1023B0008326010593F7E7FF93953500B387D70090
:1023C00013953600939737009306080113173700CB
:1023D00013163600B387D700330BA800B304B80038
:1023E000B30BE8003304C8002326F104032C0B00D0
:1023F000832C4B0003AD040083AD4400130B0B0191
:1024000013060D0093860D0013050C0093850C0038
:10241000EF80D86103AA840083AAC40003298BFF3C
:102420008329CBFF9387050013060A0093860A00D1
:102430002320A10093850900130509002324F1003E
:10244000EF80D85E130705009387050013060D0083
:1024500093860D0013050C0093850C00930D070067
:10246000938C0700EF904821130705009387050020
:1024700013060A0093860A001305090093850900D4
:102480002326E1002328F100EF90081F0323040016
:102490008323440003A80B0083A84B009387050007
:1024A000130603009386030093850800232CA100E4
:1024B000130508002320610423227104232C010347
:1024C000232E11032328F102EF805856032784009E
:1024D0008327C40003A98B0083A9CB00938A05003E
:1024E00013060700938607002324A104938509009F
:1024F000130509002320E1022322F102EF80185383
:102500000323010483234104032881038328C10397
:102510001306030093860300130D0500138C0500BA
:102520001305080093850800EF90081503270102A2
:10253000832741029308050013880500130607004E
:102540009386070013050900938509001389080085
:1025500023200103EF904812130A05009389050018
:1025600003268104032501008325810093860A0048
:1025700093840401EF80984B13060D0093060C0022
:102580002328ABFE232ABBFE13850D0093850C0088
:10259000EF80D84913860D0093860C00232CABFEE8
:1025A000232EBBFE13050D0093050C00EF90C80C05
:1025B00003270100832781000326810493860A00F4
:1025C00023A0AB0023A2BB001305070093850700DF
:1025D000EF90880A0327C1008327010113060A0030
:1025E0009386090023A4AB0023A6BB0013050700B4
:1025F00093850700EF904808832D0103130C050015
:102600008326010203258101938A05001306090030
:1026100093850D00EF809841938C0500130D050004
:1026200093860C0013060D0013050C0093850A0019
:10263000EF908804032681028326C102938B0B014D
:1026400013040401EF90C80C93860C0023A8A4FE89
:1026500023AAB4FE13060D0013050C0093850A008F
:10266000EF80D83C032C8102832CC10213060C009E
:1026700093860C00EF90C8090327C100832701014E
:1026800013060A009386090023ACA4FE23AEB4FE11
:102690001305070093850700EF80583993870500DD
:1026A00003268101832501029309050093860D000D
:1026B0001305090013890700EF80187C13860900B1
:1026C00093060900930A0500138A0500EF80D87A63
:1026D00013060C0093860C00EF9088032328A4FEB9
:1026E000232AB4FE13860A0093060A001385090004
:1026F00093050900EF80983313060C0093860C00B5
:10270000EF9008018327C104232CA4FE232EB4FEDE
:10271000E39E67CD8327010503274109939717009F
:10272000232CF108E3DEE746832601050326410555
:10273000938507003385B600232EA1063305A60036
:102740008328010693171600232CA1060325810573
:10275000B387B7009397370013830801B307F500D9
:1027600093880802232811072322F10883284106B1
:10277000931736003387C6402320F10A939736001B
:102780002326F10A93173700139846002324F10AF1
:1027900093973800232E0109232661083308050189
:1027A000338316012322F10A9307050123206108D0
:1027B00023240109232AB1062328F108032BC10889
:1027C0000323010783278B000327CB000324830007
:1027D0008324C300032A0300832A430013860700CF
:1027E0009306070013850700930507002324F100D3
:1027F0002320E1062320810423229104232C41037A
:10280000232E5103EF8098221306040093860400C0
:102810001309040093890400138405009304050040
:10282000EF80186F130605009386050013050A0054
:1028300093850A00EF80586413070500938705000D
:1028400013060A0093860A0013850400930504000A
:102850002326E1042328F104EF80986B1306090076
:1028600093860900EF80586183270B0003284B00F3
:10287000032701082320F1008327410723220101B8
:102880002322A1062324B10663DAE74E9307F7FF5C
:1028900003274107032D8108832D4108B387E740B3
:1028A00093F7E7FFB387E7000327010A9397370001
:1028B000930C0D00B304A7013304B70103270109EA
:1028C000B387E7002326F10603A90C0083A94C0077
:1028D00003AA040083AA44001305090013060A0092
:1028E00093860A0093850900EF80581403A884009A
:1028F00083A8C40003A78C0083A7CC00938B05009A
:102900001306080093860800938507002326A1007C
:1029100013050700232C0101232E11012328E100B8
:10292000232AF100EF809810130E05001383050091
:1029300013060A0093860A0013050900938509000F
:10294000930A0E0093090300EF80185303288101B6
:10295000032701018328C10183274101130E0500CC
:10296000138305001306080093860800130507006B
:10297000938507002328C101232C6100EF80D84FE5
:10298000032E0400832E440003A30D0083A34D00F7
:102990009387050013060E0093860E0093850300AF
:1029A0002324A10413050300232CC105232ED105E4
:1029B00023286102232A7102232AF104EF801807D9
:1029C0000328840003A78D0083A7CD008328C400BB
:1029D000138C0500130D05001306080093860800EC
:1029E0001305070093850700232401032326110301
:1029F0002320E1022322F102EF805803832EC10538
:102A000083234103032E81050323010393860E00D4
:102A1000130B0500138A050013060E0093850300AF
:102A200013050300EF805845032881028328C10263
:102A30000327010283274102130E050013830500BB
:102A40001306080093860800130507009385070006
:102A50002320C10323246102EF80184213090500DB
:102A60000325C1009387050013060D0093060C0093
:102A700093850B002328F102EF80487B13060B009F
:102A800093060A0023A0AC0023A2BC0013850A0011
:102A900093850900EF8088790327C10013060D0094
:102AA00093060C0023A4AC0023A6BC00130507006A
:102AB00093850B00EF80583C1307050093870500B2
:102AC00013060B0093060A0013850A00938509007C
:102AD000130A070093890700EF80183A130B0500CB
:102AE000938A0500032501008325410013060A008F
:102AF00093860900EF80D84183288100032D0106C9
:102B0000130C0500938B05001385080013060B00BA
:102B100093860A0093050D00EF80983F1306050089
:102B20009386050013050C0093850B00EF80D834C5
:102B300023A0AD0023A2BD00032501008325410091
:102B400013060B0093860A00EF80983C83288100CF
:102B500013070500938705001385080013060A0074
:102B60009386090093050D00130A07009389070057
:102B7000EF80183A130605009386050013050A0036
:102B800093850900EF80886A03270101832781016B
:102B9000832601031306090023A4AD0023A6BD006C
:102BA0001305070093850700EF80182D032D4105BD
:102BB000130A0500032601028326810203258104EE
:102BC0009389050093050D00EF804866130B0500FF
:102BD000938A0500032581038325C10313060A0098
:102BE00093860900EF80D832130C0500938B050003
:102BF000032501048325410413060B0093860A0074
:102C0000EF801831130605009386050013050C00AC
:102C100093850B00EF80582623A0A40023A2B400C4
:102C2000032581038325C10313060B0093860A0045
:102C3000EF80182E13070500938705000325010474
:102C40008325410413060A0093860900130A07002E
:102C500093890700EF80D82B1306050093860500A3
:102C600013050A0093850900EF80485C03270101E2
:102C700083278101832601031306090023A4A400EE
:102C800023A6B4001305070093850700EF80085AB8
:102C9000930905000326010283268102032581048E
:102CA0001389050093050D00EF80181D930A050098
:102CB000138A05000325C104832501051386090035
:102CC00093060900EF80D824032D4106032C8106CA
:102CD000930B0500138B050013860A0093060A0068
:102CE00013050D0093050C00EF80982213060500D4
:102CF0009386050013850B0093050B00EF80D81712
:102D00000327C104832701052320A4002322B40044
:102D100013860A0093060A0013050700938507002F
:102D2000EF80181F9387050013070500138609001D
:102D30009306090013050D0093050C001389070085
:102D400093090700EF80D81C130605009386050041
:102D50001385090093050900EF80484D8327C106BC
:102D6000938C0C012324A4002326B4009384040133
:102D7000938D0D0113040401E39897B58327010790
:102D8000032501008325410003A9870183A9C70109
:102D900003AA070183AA47011306050093860500CD
:102DA0002320210523223105232C4103232E510307
:102DB000EF80C847130609009386090093040500B5
:102DC00013840500EF80D8141306050093860500D0
:102DD00013050A0093850A00EF80180A13070500FF
:102DE0009387050013060A0093860A0013850400E2
:102DF000930504002326E1042328F104EF805811F1
:102E00001306090093860900EF8018078327C1077E
:102E1000032781072322A1062324B10663DAE750A2
:102E20009307F7FF0327C107832601060326810ABC
:102E3000B387E74093F7E7FFB387E70037070080E2
:102E40003347D7002326E1068326C10A03278108DA
:102E500093973700338DE60003274108930C0D004C
:102E6000B38DE6008326410AB304E6003384E6000E
:102E700003270109B387E7002320F10603A90C000B
:102E800083A94C0003AA040083AA44001305090087
:102E900013060A0093860A0093850900EF8008391B
:102EA00003A8840083A8C40003A78C0083A7CC00D8
:102EB000938B05001306080093860800938507008E
:102EC0002326A10013050700232C0101232E110145
:102ED0002328E100232AF100EF804835130E050076
:102EE0001383050013060A0093860A0013050900E0
:102EF00093850900930A0E0093090300EF80C877B9
:102F000003288101032701018328C101832741018F
:102F1000130E0500138305001306080093860800AE
:102F200013050700938507002328C101232C6100A6
:102F3000EF808874032E0400832E440003A30D0049
:102F400083A34D009387050013060E0093860E00A1
:102F5000938503002324A10413050300232CC1053A
:102F6000232ED10523286102232A7102232AF1048A
:102F7000EF80C82B0328840003A78D0083A7CD0012
:102F80008328C400138C0500130D050013060800E8
:102F90009386080013050700938507002324010387
:102FA000232611032320E1022322F102EF800828C7
:102FB000832EC10583234103032E810503230103CF
:102FC00093860E00130B0500138A050013060E00EE
:102FD0009385030013050300EF80086A032881022C
:102FE0008328C1020327010283274102130E050033
:102FF00013830500130608009386080013050700D5
:10300000938507002320C10323246102EF80C86653
:10301000130905000325C1009387050013060D0061
:1030200093060C0093850B002328F102EF80082003
:1030300013060B0093060A0023A0AC0023A2BC00D9
:1030400013850A0093850900EF80481E0327C100FD
:1030500013060D0093060C0023A4AC0023A6BC00AD
:103060001305070093850B00EF8008619387050027
:103070001307050013060B0093060A0013850A00C8
:1030800093850900130A070093890700EF80C85E43
:1030900003278100032DC106130B0500130607004B
:1030A000938A050093060D0013050A009385090015
:1030B000EF800866130C0500938B050003250100C3
:1030C0008325410013060B0093860A00EF804864B5
:1030D000130605009386050013050C0093850B006D
:1030E000EF8088598328810093060D0023A0AD004E
:1030F0001386080023A2BD0013050B0093850A0068
:10310000EF80086113070500938705000325010080
:103110008325410013060A0093860900130A07005D
:1031200093890700EF80C85E1306050093860500AB
:1031300013050A0093850900EF80480F032701015A
:1031400083278101832601031306090023A4AD0010
:1031500023A6BD001305070093850700EF80C85123
:10316000032D4105130A050003260102832681026F
:10317000032581049389050093050D00EF80080B5A
:10318000130B0500938A0500032581038325C103E2
:1031900013060A0093860900EF808857130C050078
:1031A000938B0500032501048325410413060B00BE
:1031B00093860A00EF80C855130605009386050024
:1031C00013050C0093850B00EF80084B23A0A4008F
:1031D00023A2B400032581038325C10313060B003A
:1031E00093860A00EF80C8521307050093870500F5
:1031F000032501048325410413060A009386090070
:10320000130A070093890700EF8088501306050012
:103210009386050013050A0093850900EF800801D5
:103220000327010183278101832601031306090077
:1032300023A4A40023A6B400130507009385070068
:10324000EF70D87E930905000326010283268102D0
:10325000032581041389050093050D00EF80C84103
:10326000930A0500138A05000325C104832501057F
:103270001386090093060900EF808849032D410653
:10328000032C8106930B0500138B050013860A009F
:1032900093060A0013050D0093050C00EF804847C4
:1032A000130605009386050013850B0093050B009C
:1032B000EF80883C0327C104832701052320A40055
:1032C0002322B40013860A0093060A0013050700A0
:1032D00093850700EF80C843938705001307050017
:1032E000138609009306090013050D0093050C00D1
:1032F0001389070093090700EF8088411306050032
:10330000938605001385090093050900EF70187274
:1033100083270106938C0C012324A4002326B400E8
:1033200093840401938D0D0113040401E398FCB40C
:103330008326C10883278109032741079386060155
:103340002326D108832601073307F700232AE10645
:10335000938606022328D10683260108B386F60049
:103360002320D1088326C107B386F600232ED10679
:1033700083268107B387F600232CF1068326810874
:103380008327C109B386F6002324D1088326410888
:10339000B387F6002322F108832741096340F7C26F
:1033A0008320C10E0324810E8324410E0329010EC4
:1033B0008329C10D032A810D832A410D032B010DA1
:1033C000832BC10C032C810C832C410C032D010C8D
:1033D000832DC10B1301010F67800000130101F859
:1033E000232C8106232A9106232E11062328210748
:1033F0002326310723244107232251072320610775
:10340000232E7105232C8105232A91052328A1054C
:103410002326B1059307800013840500930405005B
:1034200063CCA70E13092000630AF5129314390028
:10343000B3049400130A000013048400032D040055
:10344000832D440003A6840083A6C400032B84FFBD
:10345000832BC4FF03AC040083AC440013050D00B0
:1034600093850D00EF804821930A0500938905009C
:1034700013060C0093860C0013050B0093850B00BC
:10348000EF70D85A232CA4FE232EB4FE03A584008B
:1034900083A5C40013060D0093860D00EF70185924
:1034A0002320A4002322B40013060C0093860C00F2
:1034B00013050B0093850B00EF80081C23A0A400CC
:1034C00023A2B40023A4540123A63401130A2A0022
:1034D0001304040193840401E3422AF78320C10703
:1034E0000324810783244107032901078329C10697
:1034F000032A8106832A4106032B0106832BC1057B
:10350000032C8105832C4105032D0105832DC10466
:10351000130101086780000093090600EFD05FA93E
:103520009307000263D497309305800013090002CB
:103530006F008000138907009386090013060400BA
:1035400013850400EFE01FB39317290093050900CA
:10355000E3C297FE6398972CE35220F99314390045
:10356000330A9400B3099A00B3849900130F000042
:10357000232E2103032704008327440003280A0085
:1035800083284A00130F2F001306080093860800B3
:103590001305070093850700232CE1032324E10092
:1035A0002326F1002320010123221101EF70184886
:1035B000032B8400832BC400032C8A00832CCA00B5
:1035C00013830500130D050013060C0093860C00F1
:1035D00013050B0093850B0023286100EF7018453D
:1035E0000328010083284100032781008327C100AD
:1035F000130E0500138305009386080013060800C8
:1036000013050700938507002320C10123246100CF
:10361000EF808806130705009387050013060C004A
:1036200093860C0013050B0093850B00232CE100FF
:10363000232EF100EF80480403A7040083A7440071
:1036400003AC090083AC490013880500130607008A
:10365000938607002320A10293850C0013050C001C
:103660002328E102232AF10223220103EF70183CF0
:1036700003A8890083A8C90003AB840083ABC400FE
:1036800013830500930D05009385080013050800BA
:1036900013060B0093860B0023240103232611033A
:1036A000232A6100EF709838032701038327410321
:1036B000130E050013830500130607009386070009
:1036C00013050C0093850C00130C0300930C0E00E3
:1036D000EF70987A032881028328C102930A0500BB
:1036E00013890500130508009385080013060B00D5
:1036F00093860B00EF70587883264101138B0500E9
:1037000083250101930B050013860D0013050D00A1
:10371000EF70D831032701008327810013860C0046
:1037200093060C002320A4002322B40013050700F5
:1037300093850700EF70982F8327010183264101AD
:1037400013860D002324A4002326B40013050D00C6
:1037500093850700EF7058728327810003270100CB
:1037600013860C0093060C0023A0A90023A2B90025
:103770001305070093850700EF701870832D8101F2
:10378000032DC10123A4A90023A6B90013860B00B1
:1037900093060B0013850D0093050D00EF70D86D97
:1037A000832C0102032C41022320AA002322BA0009
:1037B00013860A009306090013850C0093050C007C
:1037C000EF70D8262324AA002326BA0013860B0004
:1037D00093060B0013850D0093050D00EF7018255F
:1037E00023A0A40023A2B40013860A0093060900B4
:1037F00013850C0093050C00EF7018688327C10334
:10380000032F810323A4A40023A6B40013040401FE
:10381000130A0A019389090193840401E34CFFD43C
:103820006FF0DFCBE34420C16FF05FCB1309800062
:10383000E39EF4BE6FF09FD2130101F8232C8106A2
:10384000232A9106232E1106232821072326310738
:10385000232441072322510723206107232E7105CA
:10386000232C8105232A91052328A1052326B105B0
:1038700093078000138405009304050063CAA73CE6
:103880006306F510930720002326F1008327C1006B
:10389000930D0000370C008093993700B309340171
:1038A000938C0D0013048400032904008324440036
:1038B00003A5890083A5C900032A84FF832AC4FFC6
:1038C00003AB090083AB490093860400130609008B
:1038D000EF70985A930D0500138D050013060B0029
:1038E00093860B0013050A0093850A00EF701814E5
:1038F000232CA4FE232EB4FE03A6890083A6C900B0
:10390000B3449C001305090093850400EF70D8565A
:103910002320A4002322B40013060B0093860B007F
:1039200013050A0093850A00EF7018558327C1001C
:1039300023A0A90023A2B90023A4B90123A6A901A9
:10394000938C2C009389090113040401E3CEFCF449
:103950008320C1070324810783244107032901072A
:103960008329C106032A8106832A4106032B010607
:10397000832BC105032C8105832C4105032D0105F3
:10398000832DC10413010108678000009307200004
:103990002326F1008327C100930F0000939737007F
:1039A0003309F400B304F900B387F4002324F100D1
:1039B000032B0400832B4400032C0900832C4900B3
:1039C000938F2F0013060C0093860C0013050B0039
:1039D00093850B00232EF103EF705805832DC4004F
:1039E000032A8900832AC9008329840037070080BD
:1039F0003347B701130D05009387050013060A002E
:103A000093860A0013850900930507002328F10017
:103A1000EF709846938705001307050013060C0006
:103A200093860C0013050B0093850B00232CF100EB
:103A3000232AE100EF70584413870500130805009E
:103A40001386090093860D0013050A0093850A006A
:103A50002320E102232E0101EF7018428329810007
:103A600003AB040083AB440003A8090083A849000A
:103A70009387050013060800938608002322A102FD
:103A800093850B0013050B0023280103232A110340
:103A9000232CF102EF70887903A7890083A7C9005E
:103AA00003AA840083AAC400938C050013060700B0
:103AB00093860700930D050093850A0013050A00FD
:103AC0002324E1022326F102EF7048768328410384
:103AD00003280103138E050093860800130C0500CC
:103AE0001306080013050B0093850B00930B0E00C3
:103AF000EF709838032781028327C102130805005D
:103B000093890500130607009386070013050A0032
:103B100093850A00130A0800EF701836938A05008F
:103B200083250101130B050093860C0013860D00FD
:103B300013050D00EF70886F032741018327810172
:103B400013060C0093860B002320A4002322B4004C
:103B50001305070093850700EF70183283270101D2
:103B600093860C002324A4002326B40013860D00A2
:103B700013050D0093850700EF701830832781012E
:103B80000327410113060C0093860B0023A0A40019
:103B900023A2B4001305070093850700EF7008699E
:103BA000032DC101832C010223A4A40023A6B40089
:103BB00013060B0093860A0013050D0093850C0075
:103BC000EF70982B032C4102832B8103938609000D
:103BD0002320A9002322B90013060A0013050C00B4
:103BE00093850B00EF7058292324A9002326B900E0
:103BF00013060B0093860A0013050D0093850C0035
:103C0000EF70C862938609008329810013060A00B9
:103C10001304040123A0A90023A2B90013050C007A
:103C200093850B00EF708860938709012324F100CE
:103C3000832FC1038327C10023A4A90023A6B900B1
:103C40001309090193840401E3C4FFD66FF05FD028
:103C500013090600EFD0CFB59307000263D4970491
:103C600093058000930900026F008000938907008C
:103C7000930609001306040013850400EFE08FBFCC
:103C80009397290093850900E3C297FE232631010B
:103C900063869700E34C30BF6FF09FCBE34C30CF8F
:103CA0006FF01FCB6388F400930780002326F10098
:103CB0006FF0DFBD930780002326F1006FF09FCDEA
:103CC0009357154013171600130820003347F702C7
:103CD000635CF82A372818408328C8470328884798
:103CE0009387D7FF130101F9330EE6401315350012
:103CF000138605FF93D717002324010323261103FE
:103D00003308E04093183700939747003307A60025
:103D1000131E3E0013163800B307F7402324810614
:103D200023229106232861052322910523261106CB
:103D300023202107232E3105232C4105232A510559
:103D400023267105232481052320A105232EB103F9
:103D5000232011032322C102338BC601B38C160129
:103D60003384A50093848501232EF10003260B00E4
:103D700083264B00032581028325C102130404FF1F
:103D800093840401EF70580F03A384FE83A3C4FE41
:103D90000326040083264400138C0500930D0500C0
:103DA000938503001305030023286100232A710073
:103DB000EF70980C83A844FF03A804FF0326840037
:103DC0008326C40013890500930905009385080024
:103DD000130508002324010123261101EF70084573
:103DE00003A70C0083A74C00130A0500138D0500E0
:103DF000138609009306090013850D0093050C0036
:103E00002320E1002322F100EF7098100327010026
:103E100083274100930A050013060A0013050700D3
:103E2000938B050093060D0093850700EF70580EE5
:103E3000130605009386050013850A0093850B0081
:103E4000EF709803938E0500930A050013060A008D
:103E500093060D0013850D0093050C00138A0E00C8
:103E6000EF70180B0327010083274100130F050093
:103E7000938E05001305070093850700138609003C
:103E80009306090093090F0013890E00EF7058087C
:103E900013060500938605001385090093050900A4
:103EA000EF70C83803230101832341019309050002
:103EB00013890500130503009385030013860A0088
:103EC00093060A00EF70487B23A4A4FE23A6B4FE49
:103ED000032881008328C100138609001305080008
:103EE0009385080093060900EF70087923A8A4FEC3
:103EF00023AAB4FE032504008325440013860A0088
:103F000093060A00EF7088329387050013070500B7
:103F10008325C400032584002322F40013860900AE
:103F2000930609002320E400EF70087583274102FF
:103F30002324A4002326B400330BFB0083270102B3
:103F4000B38CFC008327C101E39287E28320C10682
:103F50000324810683244106032901068329C10520
:103F6000032A8105832A4105032B0105832BC10404
:103F7000032C8104832C4104032D0104832DC103F0
:103F800013010107678000006780000083A7C50058
:103F9000130101F837070080B3C7E700232C810520
:103FA00013571540232E1106232C8106232A910630
:103FB00023282107232631072324410723225107E1
:103FC00023206107232E7105232A91052328A105AB
:103FD0002326B105131C160023A6F500232EB102DB
:103FE000232CE10293072000334CEC0263DEE7222E
:103FF00013830500B725184003A88547131535001E
:104000001307D7FF83A8C547B30786411357170087
:10401000130605FFB30C8041939737003306C300A6
:104020001317470093153C002328010313983C0005
:10403000B38CF600B307E640232A11032324B10210
:1040400023260103B38BB6003304A300930483013A
:104050002322F10203A60C0083A64C0003250103D2
:1040600083254103130404FF93840401EF70C860A7
:1040700003A884FE83A8C4FE03260400832644000C
:10408000138B0500130D0500938508001305080028
:10409000232C0101232E1101EF70085E83A344FF3E
:1040A00003A304FF032684008326C400138A0500AB
:1040B000930A05009385030013050300232861007C
:1040C000232A7100EF70881603A70B0083A74B000B
:1040D000930D0500138C050013860A0093060A0051
:1040E00013050D0093050B002324E1002326F100A6
:1040F000EF700862032781008327C1009309050040
:1041000013890500130507009385070013860D002A
:1041100093060C00EF70C85F130605009386050038
:104120001385090093050900EF70481093090500F5
:104130001389050013860D0093060C0013050D006E
:1041400093050B00EF70C85C8327C1000327810033
:10415000930E0500138E05001305070093850700D5
:1041600013860A0093060A00938A0E00130A0E00B3
:10417000EF70085A130605009386050013850A00A0
:1041800093050A00EF70484F032881018328C1017D
:10419000930A0500138A050013050800938508009B
:1041A0001386090093060900EF70084D23A4A4FEAE
:1041B00023A6B4FE032301018323410113850A00D2
:1041C000130603009386030093050A00EF70C84AA4
:1041D00023A8A4FE23AAB4FE0325040083254400DB
:1041E0001386090093060900EF7048040326840033
:1041F0008326C4002320A4002322B40013850A00D0
:1042000093050A00EF7048478327C1022324A400C6
:104210002326B400B38CFC0083278102B38BFB0000
:1042200083274102E39887E2832781038320C10724
:1042300003248107938517008327C10393953500D5
:1042400037070080B385B70083A745008324410763
:1042500003290107B3C7E70023A2F5008329C1069C
:10426000032A8106832A4106032B0106832BC105FD
:10427000032C8105832C4105032D0105832DC104E9
:104280001301010867800000130101FD232A510179
:1042900083AA06002324810223229102232E3101C6
:1042A000232C41012328610123261102232021030D
:1042B000232681012324910193972A00138A060063
:1042C000130405009384050093090600130B0700EF
:1042D00063D8A70A93071000935A254023A2F6003B
:1042E00023A0560113072000930740001309100074
:1042F0006346571963CC870863C8040A93074000D4
:1043000063C08714630AF42003A4090083A449004E
:1043100003AA890083AAC9001305040013060A0032
:1043200093860A0093850400EF60587023A0A900CB
:1043300023A2B90013060A0093860A00130504009D
:1043400093850400EF70483323A4A90023A6B90085
:104350008320C10203248102832441020329010234
:104360008329C101032A8101832A4101032B010111
:10437000032CC100832C810013010103678000001E
:1043800003A9460093172900E3D887F61359244060
:1043900023222A0193071000E3D027F793953A00D0
:1043A000B305BB006F00401003AC090083AC4900AB
:1043B00003A6890083A6C90013050C0093850C0091
:1043C000EF70882BB727184003A6874783A6C747F7
:1043D000EF700834130605009386050023A4A90096
:1043E00023A6B90013050C0093850C00EF70C828B4
:1043F00023A0A90023A2B9009307400063CC870A39
:10440000E318F4F4032481028320C10283244102CF
:1044100003290102032A8101832A4101032CC100DF
:10442000832C810013060B0093850900032B0101E7
:104430008329C10113054000130101036FE01FFA36
:104440001386090093058A0013050400EFC08FD975
:1044500013060B009385090013050400EFE01FF815
:1044600093963A00B306DB00130609009385090012
:1044700013050400EFF0DF846FF01FE913060B0053
:104480009385060013850A00EFC0DF9403294A00D4
:1044900093172900E3D287E693953A00B305BB0052
:1044A00023225A0113890A0013050900EFC00FBC2B
:1044B0006FF09FE493963A00B306DB009385090002
:1044C0001305040013060900EFF05FAC1386090022
:1044D00093058A0013050400EFC0CFD01305040034
:1044E000032481028320C1028324410203290102A3
:1044F000032A8101832A4101032CC100832C8100FE
:1045000013060B0093850900032B01018329C101C8
:10451000130101036FF04FB213060B0093850900DE
:1045200013054000EFE09FEB6FF01FDE130101BDAC
:10453000B767094023229142938747829314A500CD
:104540002324814223202143232E3141232C414126
:10455000232A514123286141232611429309050052
:1045600013090101B384F40013040000B73A1840A2
:10457000375A0940130B00010327090083A70400E1
:10458000630AF70213830A02832503002320E10054
:10459000930800009385150013080400130700001A
:1045A000930604001386090013054A6A2320B3000A
:1045B000EF8088380327490083A74400630AF70285
:1045C00013830A02832503002320E10093081000CF
:1045D00093851500130804001307100093060400C8
:1045E0001386090013054A6A2320B300EF80C834FC
:1045F0000327890083A78400630AF70213830A0252
:10460000832503002320E1009308200093851500F3
:104610001308040013072000930604001386090002
:1046200013054A6A2320B300EF8008310327C9002D
:1046300083A7C400630AF70213830A0283250300D9
:104640002320E1009308300093851500130804002F
:1046500013073000930604001386090013054A6A05
:104660002320B300EF80482D0327090183A704010D
:10467000630AF70213830A02832503002320E10063
:1046800093084000938515001308040013074000A9
:10469000930604001386090013054A6A2320B30019
:1046A000EF8088290327490183A74401630AF702A1
:1046B00013830A02832503002320E100930850009E
:1046C0009385150013080400130750009306040097
:1046D0001386090013054A6A2320B300EF80C8251A
:1046E0000327890183A78401630AF70213830A025F
:1046F000832503002320E1009308600093851500C3
:1047000013080400130760009306040013860900D1
:1047100013054A6A2320B300EF8008220327C9014A
:1047200083A7C401630AF70213830A0283250300E7
:104730002320E100930870009385150013080400FE
:1047400013077000930604001386090013054A6AD4
:104750002320B300EF80481E0327090283A7040229
:10476000630AF70213830A02832503002320E10072
:104770009308800093851500130804001307800038
:10478000930604001386090013054A6A2320B30028
:10479000EF80881A0327490283A74402630AF702BD
:1047A00013830A02832503002320E100930890006D
:1047B0009385150013080400130790009306040066
:1047C0001386090013054A6A2320B300EF80C81638
:1047D0000327890283A78402630AF70213830A026C
:1047E000832503002320E1009308A0009385150092
:1047F000130804001307A0009306040013860900A1
:1048000013054A6A2320B300EF8008130327C90267
:1048100083A7C402630AF70213830A0283250300F5
:104820002320E1009308B0009385150013080400CD
:104830001307B000930604001386090013054A6AA3
:104840002320B300EF80480F0327090383A7040345
:10485000630AF70213830A02832503002320E10081
:104860009308C00093851500130804001307C000C7
:10487000930604001386090013054A6A2320B30037
:10488000EF80880B0327490383A74403630AF702D9
:1048900013830A02832503002320E1009308D0003C
:1048A00093851500130804001307D0009306040035
:1048B0001386090013054A6A2320B300EF80C80756
:1048C0000327890383A78403630AF70213830A0279
:1048D000832503002320E1009308E0009385150061
:1048E000130804001307E000930604001386090070
:1048F00013054A6A2320B300EF8008040327C90385
:1049000083A7C403630AF70213830A028325030003
:104910002320E1009308F00093851500130804009C
:104920001307F000930604001386090013054A6A72
:104930002320B300EF804800130414001309090476
:1049400093840404E31A64C38320C1420324814294
:1049500083244142032901428329C141032A814121
:10496000832A4141032B0141130101436780000069
:10497000130101BD23229142B764094023248142DF
:1049800023202143232E3141232C4141232A51410D
:1049900023261142130901019384444213040000A9
:1049A000373A1840B7590940930A00010327090014
:1049B00083A70400638AE70213030A028325030026
:1049C0002320E100930800009385150013080400DC
:1049D0001307000093060400130630001385496A8C
:1049E0002320B300EF7058750327490083A74400C4
:1049F000630AF70213030A02832503002320E10060
:104A00009308100093851500130804001307100085
:104A100093060400130630001385496A2320B3006F
:104A2000EF7098710327890083A78400630AF70257
:104A300013030A02832503002320E10093082000CA
:104A40009385150013080400130720009306040043
:104A5000130630001385496A2320B300EF70D86D28
:104A60000327C90083A7C400630AF70213030A02DD
:104A7000832503002320E10093083000938515006F
:104A800013080400130730009306040013063000D7
:104A90001385496A2320B300EF70186A03270901C0
:104AA00083A70401630AF70213030A0283250300A4
:104AB0002320E100930840009385150013080400AB
:104AC0001307400093060400130630001385496A5B
:104AD0002320B300EF7058660327490183A74401E0
:104AE000630AF70213030A02832503002320E1006F
:104AF0009308500093851500130804001307500015
:104B000093060400130630001385496A2320B3007E
:104B1000EF7098620327890183A78401630AF70273
:104B200013030A02832503002320E1009308600099
:104B30009385150013080400130760009306040012
:104B4000130630001385496A2320B300EF70D85E46
:104B50000327C90183A7C401630AF70213030A02EA
:104B6000832503002320E10093087000938515003E
:104B700013080400130770009306040013063000A6
:104B80001385496A2320B300EF70185B03270902DD
:104B900083A70402630AF70213030A0283250300B2
:104BA0002320E1009308800093851500130804007A
:104BB0001307800093060400130630001385496A2A
:104BC0002320B300EF7058570327490283A74402FC
:104BD000630AF70213030A02832503002320E1007E
:104BE00093089000938515001308040013079000A4
:104BF00093060400130630001385496A2320B3008E
:104C0000EF7098530327890283A78402630AF7028F
:104C100013030A02832503002320E1009308A00068
:104C200093851500130804001307A00093060400E1
:104C3000130630001385496A2320B300EF70D84F64
:104C40000327C90283A7C402630AF70213030A02F7
:104C5000832503002320E1009308B000938515000D
:104C6000130804001307B000930604001306300075
:104C70001385496A2320B300EF70184C03270903FA
:104C800083A70403630AF70213030A0283250300C0
:104C90002320E1009308C000938515001308040049
:104CA0001307C00093060400130630001385496AF9
:104CB0002320B300EF7058480327490383A7440318
:104CC000630AF70213030A02832503002320E1008D
:104CD0009308D00093851500130804001307D00033
:104CE00093060400130630001385496A2320B3009D
:104CF000EF7098440327890383A78403630AF702AC
:104D000013030A02832503002320E1009308E00037
:104D100093851500130804001307E00093060400B0
:104D2000130630001385496A2320B300EF70D84082
:104D30000327C90383A7C403630AF70213030A0204
:104D4000832503002320E1009308F00093851500DC
:104D5000130804001307F000930604001306300044
:104D60001385496A2320B300EF70183D1304140023
:104D70001309090493840404E31A54C38320C14231
:104D80000324814283244142032901428329C141F2
:104D9000032A8141832A41411301014367800000B6
:104DA000130101BD23229142B764094023248142AB
:104DB00023202143232E3141232C4141232A5141D9
:104DC00023261142130901019384440213040000B5
:104DD000373A1840B7590940930A000103270900E0
:104DE00083A70400638AE70213030A0283250300F2
:104DF0002320E100930800009385150013080400A8
:104E00001307000093060400130620001385496A67
:104E10002320B300EF7058320327490083A74400D2
:104E2000630AF70213030A02832503002320E1002B
:104E30009308100093851500130804001307100051
:104E400093060400130620001385496A2320B3004B
:104E5000EF70982E0327890083A78400630AF70266
:104E600013030A02832503002320E1009308200096
:104E7000938515001308040013072000930604000F
:104E8000130620001385496A2320B300EF70D82A47
:104E90000327C90083A7C400630AF70213030A02A9
:104EA000832503002320E10093083000938515003B
:104EB00013080400130730009306040013062000B3
:104EC0001385496A2320B300EF70182703270901CF
:104ED00083A70401630AF70213030A028325030070
:104EE0002320E10093084000938515001308040077
:104EF0001307400093060400130620001385496A37
:104F00002320B300EF7058230327490183A74401EE
:104F1000630AF70213030A02832503002320E1003A
:104F200093085000938515001308040013075000E0
:104F300093060400130620001385496A2320B3005A
:104F4000EF70981F0327890183A78401630AF70282
:104F500013030A02832503002320E1009308600065
:104F600093851500130804001307600093060400DE
:104F7000130620001385496A2320B300EF70D81B65
:104F80000327C90183A7C401630AF70213030A02B6
:104F9000832503002320E10093087000938515000A
:104FA0001308040013077000930604001306200082
:104FB0001385496A2320B300EF70181803270902EC
:104FC00083A70402630AF70213030A02832503007E
:104FD0002320E10093088000938515001308040046
:104FE0001307800093060400130620001385496A06
:104FF0002320B300EF7058140327490283A744020B
:10500000630AF70213030A02832503002320E10049
:10501000930890009385150013080400130790006F
:1050200093060400130620001385496A2320B30069
:10503000EF7098100327890283A78402630AF7029E
:1050400013030A02832503002320E1009308A00034
:1050500093851500130804001307A00093060400AD
:10506000130620001385496A2320B300EF70D80C83
:105070000327C90283A7C402630AF70213030A02C3
:10508000832503002320E1009308B00093851500D9
:10509000130804001307B000930604001306200051
:1050A0001385496A2320B300EF7018090327090309
:1050B00083A70403630AF70213030A02832503008C
:1050C0002320E1009308C000938515001308040015
:1050D0001307C00093060400130620001385496AD5
:1050E0002320B300EF7058050327490383A7440327
:1050F000630AF70213030A02832503002320E10059
:105100009308D00093851500130804001307D000FE
:1051100093060400130620001385496A2320B30078
:10512000EF7098010327890383A78403630AF702BA
:1051300013030A02832503002320E1009308E00003
:1051400093851500130804001307E000930604007C
:10515000130620001385496A2320B300EF70C87D31
:105160000327C90383A7C403630AF70213030A02D0
:10517000832503002320E1009308F00093851500A8
:10518000130804001307F000930604001306200020
:105190001385496A2320B300EF70087A13041400C2
:1051A0001309090493840404E31A54C38320C142FD
:1051B0000324814283244142032901428329C141BE
:1051C000032A8141832A4141130101436780000082
:1051D000130101BD23229142B76409402324814277
:1051E00023202143232E3141232C4141232A5141A5
:1051F0002326114213090101938444C213040000C1
:10520000373A1840B7590940930A000103270900AB
:1052100083A70400638AE70213030A0283250300BD
:105220002320E10093080000938515001308040073
:105230001307000093060400130610001385496A43
:105240002320B300EF70486F0327490083A7440071
:10525000630AF70213030A02832503002320E100F7
:10526000930810009385150013080400130710001D
:1052700093060400130610001385496A2320B30027
:10528000EF70886B0327890083A78400630AF70205
:1052900013030A02832503002320E1009308200062
:1052A00093851500130804001307200093060400DB
:1052B000130610001385496A2320B300EF70C867F6
:1052C0000327C90083A7C400630AF70213030A0275
:1052D000832503002320E100930830009385150007
:1052E000130804001307300093060400130610008F
:1052F0001385496A2320B300EF700864032709016E
:1053000083A70401630AF70213030A02832503003B
:105310002320E10093084000938515001308040042
:105320001307400093060400130610001385496A12
:105330002320B300EF7048600327490183A744018D
:10534000630AF70213030A02832503002320E10006
:1053500093085000938515001308040013075000AC
:1053600093060400130610001385496A2320B30036
:10537000EF70885C0327890183A78401630AF70221
:1053800013030A02832503002320E1009308600031
:1053900093851500130804001307600093060400AA
:1053A000130610001385496A2320B300EF70C85814
:1053B0000327C90183A7C401630AF70213030A0282
:1053C000832503002320E1009308700093851500D6
:1053D000130804001307700093060400130610005E
:1053E0001385496A2320B300EF700855032709028B
:1053F00083A70402630AF70213030A02832503004A
:105400002320E10093088000938515001308040011
:105410001307800093060400130610001385496AE1
:105420002320B300EF7048510327490283A74402A9
:10543000630AF70213030A02832503002320E10015
:10544000930890009385150013080400130790003B
:1054500093060400130610001385496A2320B30045
:10546000EF70884D0327890283A78402630AF7023D
:1054700013030A02832503002320E1009308A00000
:1054800093851500130804001307A0009306040079
:10549000130610001385496A2320B300EF70C84932
:1054A0000327C90283A7C402630AF70213030A028F
:1054B000832503002320E1009308B00093851500A5
:1054C000130804001307B00093060400130610002D
:1054D0001385496A2320B300EF70084603270903A8
:1054E00083A70403630AF70213030A028325030058
:1054F0002320E1009308C0009385150013080400E1
:105500001307C00093060400130610001385496AB0
:105510002320B300EF7048420327490383A74403C5
:10552000630AF70213030A02832503002320E10024
:105530009308D00093851500130804001307D000CA
:1055400093060400130610001385496A2320B30054
:10555000EF70883E0327890383A78403630AF70259
:1055600013030A02832503002320E1009308E000CF
:1055700093851500130804001307E0009306040048
:10558000130610001385496A2320B300EF70C83A50
:105590000327C90383A7C403630AF70213030A029C
:1055A000832503002320E1009308F0009385150074
:1055B000130804001307F0009306040013061000FC
:1055C0001385496A2320B300EF70083713041400D1
:1055D0001309090493840404E31A54C38320C142C9
:1055E0000324814283244142032901428329C1418A
:1055F000032A8141832A414113010143678000004E
:10560000130101BD23229142B76409402324814242
:1056100023202143232E3141232C4141232A514170
:1056200023261142130901019384448213040000CC
:10563000373A1840B7590940930A00010327090077
:1056400083A70400638AE70213030A028325030089
:105650002320E1009308000093851500130804003F
:105660001307000093060400130600001385496A1F
:105670002320B300EF70482C0327490083A7440080
:10568000630AF70213030A02832503002320E100C3
:1056900093081000938515001308040013071000E9
:1056A00093060400130600001385496A2320B30003
:1056B000EF7088280327890083A78400630AF70214
:1056C00013030A02832503002320E100930820002E
:1056D00093851500130804001307200093060400A7
:1056E000130600001385496A2320B300EF70C82415
:1056F0000327C90083A7C400630AF70213030A0241
:10570000832503002320E1009308300093851500D2
:10571000130804001307300093060400130600006A
:105720001385496A2320B300EF700821032709017C
:1057300083A70401630AF70213030A028325030007
:105740002320E1009308400093851500130804000E
:105750001307400093060400130600001385496AEE
:105760002320B300EF70481D0327490183A744019C
:10577000630AF70213030A02832503002320E100D2
:105780009308500093851500130804001307500078
:1057900093060400130600001385496A2320B30012
:1057A000EF7088190327890183A78401630AF70230
:1057B00013030A02832503002320E10093086000FD
:1057C0009385150013080400130760009306040076
:1057D000130600001385496A2320B300EF70C81533
:1057E0000327C90183A7C401630AF70213030A024E
:1057F000832503002320E1009308700093851500A2
:105800001308040013077000930604001306000039
:105810001385496A2320B300EF7008120327090299
:1058200083A70402630AF70213030A028325030015
:105830002320E100930880009385150013080400DD
:105840001307800093060400130600001385496ABD
:105850002320B300EF70480E0327490283A74402B8
:10586000630AF70213030A02832503002320E100E1
:105870009308900093851500130804001307900007
:1058800093060400130600001385496A2320B30021
:10589000EF70880A0327890283A78402630AF7024C
:1058A00013030A02832503002320E1009308A000CC
:1058B00093851500130804001307A0009306040045
:1058C000130600001385496A2320B300EF70C80651
:1058D0000327C90283A7C402630AF70213030A025B
:1058E000832503002320E1009308B0009385150071
:1058F000130804001307B000930604001306000009
:105900001385496A2320B300EF70080303270903B6
:1059100083A70403630AF70213030A028325030023
:105920002320E1009308C0009385150013080400AC
:105930001307C00093060400130600001385496A8C
:105940002320B300EF60587F0327490383A7440354
:10595000630AF70213030A02832503002320E100F0
:105960009308D00093851500130804001307D00096
:1059700093060400130600001385496A2320B30030
:10598000EF60987B0327890383A78403630AF702E8
:1059900013030A02832503002320E1009308E0009B
:1059A00093851500130804001307E0009306040014
:1059B000130600001385496A2320B300EF60D877EF
:1059C0000327C90383A7C403630AF70213030A0268
:1059D000832503002320E1009308F0009385150040
:1059E000130804001307F0009306040013060000D8
:1059F0001385496A2320B300EF6018741304140060
:105A00001309090493840404E31A54C38320C14294
:105A10000324814283244142032901428329C14155
:105A2000032A8141832A4141130101436780000019
:105A3000130101FF232021013739184013090902FE
:105A40002326110023248100232291002320090012
:105A5000EF00104AB74718409387C7E503A7070030
:105A60001307170023A0E70093071000739057B0A7
:105A700013040000B714000013753400130414005D
:105A8000EFE0DFAAE31A94FE93070000739057B08B
:105A900083250900639405023755094013054571B4
:105AA000EF609869032481008320C10083244100B2
:105AB00003290100130101016F00506437550940AB
:105AC00013054572EF605867032481008320C100ED
:105AD0008324410003290100130101016F001062BA
